:100000000C9497070C94B4070C94B4070C94D33158
:100010000C94B4070C94B4070C94B4070C94B40774
:100020000C94B4070C94B4070C9440140C94BF1AAD
:100030000C94072B0C94B4070C94B4070C94B407DD
:100040000C94B4070C94B4070C94B4070C94B40744
:100050000C94B4070C9419150C94B4070C94B407C1
:100060000C94B4070C94B4070C94B4070C94B40724
:100070000C94B4070C94B4070C94B4070C94B40714
:100080000C94B4070C94B4070C94B4070C94B40704
:100090000C94B4070C94B4070C94B4070C94B407F4
:1000A0000C94B4070C94B4070C94B40720202020BF
:1000B00020008081828384A0A1A2A3A4C0C1C2C366
:1000C000C400202020202000209495962020B4B544
:1000D000B62020D4D5D62000209A9B9C2020B7B8EB
:1000E000B92020D7D8D92000209798992020B7B8D8
:1000F000B92020D7D8D92000209A9B9C2020BABBB9
:10010000BC2020DADBDC2000209D9E9F2020BDBE8D
:10011000BF2020DDDEDF200020202020616263641C
:1001200065666768696A6B6C6D6E6F707172737407
:1001300075767778797A31323334353637383930E5
:10014000524542545F2D3D5B5D5C233B27602C2E66
:100150002F2020200102E301012B002B0014001AA4
:1001600000080015001700E1000400160007000950
:10017000000A00E0001D001B000600190005000039
:100180000000000000E300417E2C002A0013001252
:10019000000C0018001C00340033000F000E000D8E
:1001A000000B00E500380037003600100011004F4A
:1001B000015001A8000057427E28002B001E001F9E
:1001C00000200021002200E1005000510052004FA9
:1001D000002900E00052085108AC00AE00AB00005E
:1001E0000000000000E30001002C004C0027002666
:1001F00000250024002300310030002F002E002DA8
:10020000006400E5006452210A457E640A35004F0F
:100210000C500CA8000057635228002B001E001F32
:1002200000200021002200E1005000510052004F48
:10023000002900E0004A00510152014D000408006D
:100240000000000000E30063522C002A082700266B
:1002500000045724002300015702572F080357D1E9
:1002600000D300E5003808370836080508E1084FD4
:10027000015001A6000057010028002B0038084C4F
:100280000049004B004A00E1005000510052004F6D
:10029000002900E00004080C0837084E004D00005B
:1002A0000000000000E30063522C002A0027002613
:1002B000002500240067005600570023002200217B
:1002C0000085005500540020001F001E0063004FF1
:1002D00008500800000057635228003A003B003CD9
:1002E000003D003E003F00E1005000510052004F31
:1002F000002900E0001C70200A1B70A6002B0000E3
:100300000000000000E30064522C0045004400435C
:100310000042004100400029782778257823782280
:1003200078007C2A78287826782478217820784FDD
:10033000015001000000576452280000DA0281FFDA
:10034000D9F1DB20A4A62EAF00A0C0D30000A1C825
:10035000D30000AED580A81F408D14200000AF0050
:10036000AE204A6273740000000000E0100808C864
:10037000B08080808080808040403C1404089018C9
:100380000408B040800000000000000102C4A4FC8A
:10039000000000008000000000000000000080C895
:1003A00058282A100F000000000000000E09040465
:1003B000040402030201010202040810262B320485
:1003C00005060000000000000000E01010F0000032
:1003D000000000000000808080782808102030088D
:1003E000102040800000000000000304081011F9F4
:1003F00001010101010100000000000000000110E6
:10040000B05055201F000000000000000000000058
:1004100001020C10202837021E2020180C141E0187
:1004200000000000000000000000000080402010DC
:10043000909090A0C08080807008140890101008E0
:10044000A478800000000000000000000708FC0104
:1004500000000000800000010000000000000818FB
:10046000EA100F0000000000000000000000031C64
:1004700020203C0F111F03061820203C0C121E01E7
:10048000000000000000000000000000008040208C
:100490002020408000000000E010281020202010C4
:1004A00048F0000000000000000000001F20F802DB
:1004B00001010101010101030000000001001030F1
:1004C000D5201F00000000000000000000003F20B9
:1004D000300C020509121E021C140810202C3201D7
:1004E000000000000000000000000000000000000C
:1004F0000000000000E01C02050224040402A91E02
:10050000E0000000000000000000000000E0100813
:100510006810080403000000000000000206827C4E
:1005200003000000000000000000000000010204C1
:100530000C1010202020283E1C20203E0F111F00F0
:1005400000000000000000000000000000000000AB
:100550000000000000E01C02050224040402A91EA1
:10056000E00000000000000000000000E09008181B
:10057000601008040300000000000000020E827CEE
:100580000300000000000000000000000001020461
:100590000C1010202020283E1C20203E0F111F0090
:1005A000000000000000000000000000008040404B
:1005B000404080000000000000C0404080008040BB
:1005C00080000000000000000000001E21F0040276
:1005D0000202020302020404040301000009018074
:1005E00080AB04F8000000000000000000031C20A5
:1005F000203C0F111F020618202038081018040490
:1006000002020100000000000000000000804040E5
:10061000408000000000000000E0A0204080C020DA
:1006200040800000000000000000003E41F0040295
:10063000020203020202040402010000000400405E
:100640004055827C0000000000000000003F203088
:100650000C020509121E0418100810202834060286
:100660000101000000000000C02010D03000000098
:10067000000000008080403C14040890180408B07A
:1006800040800000000000000304081011F901017F
:10069000010101010000000000000080C848282A74
:1006A000100F000000000000000000000000010228
:1006B0000C102028370202040810262B32040506ED
:1006C0000000000000000000E01010F0000000003A
:1006D00000000000808040402C140408901804089A
:1006E000B0408000000000000304081011F901016F
:1006F00001010101000000000000000080C0482846
:100700002A100F204A09100000000000000001021A
:100710000C102028370202040810262B320405068C
:10072000000000000000004A6273742000A7A800C7
:10073000AFB000C600CA00C800A5A600ADAE0087D5
:1007400088008F9000C500C900C700CB00858600D7
:100750008D8E00ABAC00CFD000C600CA00C800A987
:10076000AA00B1B2008B8C00CDCE00C500C900C775
:1007700000CB00898A009192000102E20101500140
:1007800003E2000102E201014F0103E2000102E382
:100790002F0103E3000102E10102E32F0103E30063
:1007A0000102E20101520103E2000102E2010151F2
:1007B0000103E2000102DF0101D9000102DF0101B2
:1007C000DA000102E30101300103E3000102E30169
:1007D00001340103E30005010902A10185020901B9
:1007E000A1000509190129081500250195087501C1
:1007F00081020501093009311581257F95027508AF
:10080000810609381581257F950175088106050C3B
:100810000A38021581257F950175088106C0C0053B
:10082000010980A101850319012AB700150126B726
:1008300000950175108100C0050C0901A101850416
:1008400019012AA002150126A00295017510810048
:10085000C005010906A1018506050719E029E7156C
:100860000025019508750181020507190029EF157A
:1008700000250195F07501810205081901290595EA
:100880000575019102950175039101C005010906E5
:10089000A101050719E029E7150025019508750153
:1008A00081029501750881010507190029FF1500CE
:1008B00026FF009506750881000508190129059590
:1008C0000575019102950175039101C009023B0074
:1008D000020100A0FA09040000010301010009213E
:1008E00011010001224000070581030800010904ED
:1008F0000100010300000009211101000122B600DE
:1009000007058203200001120100020000000853C5
:100910004601000100010200010C0343006F007258
:10092000006E0065000000100366006F006F00732A
:1009300000740061006E0000000403090400000060
:1009400000000000000000000000000000000000A7
:100950000000000000000000000000000000000097
:10096000007E0F00D4FFFFFFC700000078000000EA
:1009700000000000002A2B280000000000000000FA
:10098000000000000000000029000000002C1E34C0
:1009900020212224342627252E362D3738271E1FC6
:1009A000202122232425263333362E37381F0405F1
:1009B000060708090A0B0C0D0E0F1011121314155F
:1009C000161718191A1B1C1D2F3130232D3504053D
:1009D000060708090A0B0C0D0E0F1011121314153F
:1009E000161718191A1B1C1D2F3130354C0000002A
:1009F0000000003E5B4F5B3E003E6B4F6B3E001CB9
:100A00003E7C3E1C00183C7E3C18001C577D571C49
:100A1000001C5E7F5E1C0000183C180000FFE7C34E
:100A2000E7FF00001824180000FFE7DBE7FF0030B5
:100A3000483A060E00262979292600407F05050739
:100A400000407F05253F005A3CE73C5A007F3E1C92
:100A50001C0800081C1C3E7F0014227F2214005F2B
:100A60005F005F5F0006097F017F00006689956A6D
:100A70000060606060600094A2FFA2940008047EA1
:100A800004080010207E20100008082A1C08000816
:100A90001C2A0808001E10101010000C1E0C1E0C42
:100AA0000030383E383000060E3E0E0600000000D2
:100AB00000000000005F00000000070007000014B5
:100AC0007F147F1400242A7F2A12002313086462F3
:100AD00000364956205000000807030000001C2281
:100AE0004100000041221C00002A1C7F1C2A000833
:100AF000083E080800008070300000080808080858
:100B0000000000606000002010080402003E51490F
:100B1000453E0000427F400000724949494600219D
:100B200041494D33001814127F10002745454539BF
:100B3000003C4A4949310041211109070036494921
:100B4000493600464949291E0000001400000000F3
:100B5000403400000000081422410014141414143E
:100B6000000041221408000201590906003E415DBF
:100B7000594E007C1211127C007F49494936003ED3
:100B800041414122007F4141413E007F4949494165
:100B9000007F09090901003E41415173007F0808A7
:100BA000087F0000417F4100002040413F01007F5D
:100BB00008142241007F40404040007F021C027F19
:100BC000007F0408107F003E4141413E007F09093B
:100BD0000906003E4151215E007F09192946002681
:100BE000494949320003017F0103003F4040403F33
:100BF000001F2040201F003F4038403F0063140882
:100C00001463000304780403006159494D43000054
:100C10007F41414100020408102000004141417F12
:100C2000000402010204004040404040000003076D
:100C30000800002054547840007F2844443800388D
:100C40004444442800384444287F003854545418FD
:100C50000000087E0902001824241C78007F080484
:100C600004780000447D4000002040403D00007FAB
:100C7000102844000000417F4000007C0478047884
:100C8000007C08040478003844444438007C18246C
:100C9000241800182424187C007C08040408004848
:100CA000545454240004043F4424003C4040207C1D
:100CB000001C2040201C003C4030403C00442810D8
:100CC0002844004C9090907C004464544C440000B4
:100CD000083641000000007700000000413608009F
:100CE000000201020402003C2623263C0000000012
:100CF0000000000000C0E0F0F8F81800C0F0FCFEB2
:100D0000FFFFFFFFFFFFFF7E00000000F8042252FC
:100D1000E2424242E2522222224282020222220283
:100D200004F80000F8040202824222428202020217
:100D3000824222122242820204F80000F8FCDEAE57
:100D40001EBEBEBE1EAEDEDEDEBE7EFEFEDEDEFEF3
:100D5000FCF80000F8FCFEFE7EBEDEBE7EFEFE005D
:100D60000000000000808040402020101008081083
:100D7000102020404080808080C0C0E0E0F0F0F88B
:100D8000F8F0F0E0E0C0C08080808040402020107B
:100D90001008081010202040408080808040C060F3
:100DA000A050B058A850B060A040C0808000F8FCAF
:100DB000FEFFE000FFFFFFFFFFFF80FFFFFFFFFFE1
:100DC000FFFFFFFF1F070100000000001F20444A33
:100DD00047424242474A44404040404142444440E6
:100DE000201F00001F204041404040404041404102
:100DF000414F4848484F4141201F00001F3F7B752D
:100E0000787D7D7D78757B7F7F7F7F7E7D7B7B7F1F
:100E10003F1F00001F3F7F7E7F7F7F7F7F7E7F00A1
:100E2000000000000088885D5D3E3E7C7CF8F87C18
:100E30007C3E3E5D5D888888885555232347478FD3
:100E40008F47472323555588888888D5D5E2E2C443
:100E5000C48888C4C4E2E2D5D5888888885DD56B0B
:100E6000B66DD6ADDA6DD66BB65DD5888800030F4A
:100E70001F3F3F3F3F1F1F3F3F7F7F7F3F3F1F3F42
:100E80007F7F7F7F7C7878381C0F0004F80000F8A3
:100E900004201F00001F20FCF80000F8043F1F0082
:100EA000001F2004F80000F8FC201F00001F3FFC7A
:100EB000F80000F8FC3F1F00001F3FFE7EBEDEEE84
:100EC000DEBE7EFEFCF8007E7E70777777707E7ED9
:100ED0003F1F0000000000000000000000000000B4
:100EE00000000000000000010102020404080804E0
:100EF00004020201010000000001010202040408D2
:100F000008040402020101000000000101030307BC
:100F1000070F0F0707030301010000000001010391
:100F20000205060D0A050603020101000000112456
:100F30001FBECFEFDAE0DEBFCDBF12E0A0E0B1E030
:100F4000EEE1FEE602C005900D92AA32B107D9F794
:100F500026E0AAE2B2E001C01D92AD32B207E1F78D
:100F60000E942E2B0C94CE360C940000CF93DF936E
:100F70004091270650912806415254409A01205A28
:100F80003F4F21303240C0F020E032E0241B350BCF
:100F900060911F0470912004FC01CA01240F351FC9
:100FA000C1E0D0E08217930750F070932004609363
:100FB0001F04DF91CF91089520E630E0E9CF4491FE
:100FC000DC01AF5DBB4F5C91451781F04C93AC01E8
:100FD000A5E056954795AA95E1F7DE0102C0AA0F54
:100FE000BB1F4A95E2F7AD016A2B752B019631962E
:100FF000D9CF482F20911A049091E10357E029138B
:1010000002C080E0089530E0529FF001539FF00D40
:101010001124EE51FC4F8181681306C08081481372
:1010200003C085818111EECF2F5F3F4F2770E7CF3F
:10103000E8EDF0E080818E7F80831092E2001092D4
:10104000DA001092E100A0EEB0E08C9181608C9308
:1010500080818F77808319BCA7EDB0E08C918E7F63
:101060008C9380818F7E80831092B20308952091AB
:10107000E4003091E50095E6A9012091EC00822F73
:10108000817020FF06C08091E80080FF06C080E0EC
:1010900008952091E80022FD1AC08091D70388238B
:1010A00089F0853089F08091EB0085FD0FC020919B
:1010B000E4003091E50042175307F9F29150E1F650
:1010C00084E0089582E0089583E0089581E0089522
:1010D0008091D90387FF13C08091E80082FF06C08A
:1010E0008091E8008B778093E80004C08091D7035B
:1010F0008111F2CF08958091D7038823D9F380918D
:10110000E80080FFF8CF8091E8008E77ECCF982F31
:101110009093E900242F762F50E0891731F07091D9
:10112000EC002091ED005091F00021FD07C09F5F81
:10113000973071F78093E90081E008953091EB00DA
:101140003E7F3093EB003091ED003D7F3093ED001A
:101150003091EB0031603093EB007093EC00209302
:10116000ED005093F0002091EE0027FDE0CF80E0ED
:101170000895B0E0A0E0EFEBF8E00C940D33C8ED7B
:10118000D0E088818F7E8883E7EDF0E08081816008
:10119000808384E082BF81E08093B20388818E7F68
:1011A000888302EE10E0F80110821092DA0081EEDE
:1011B000C82ED12CF601108288818F778883888190
:1011C0008068888388818F7D888319BC1092D703BB
:1011D0001092D8031092D6031092D50390EEE92E08
:1011E000F12CF70180818B7F8083888181608883E7
:1011F00042E060E080E00E948708F60180818E7FF7
:101200008083F80180818160808380818860808311
:10121000F70180818E7F8083888180618883CDB74C
:10122000DEB7E8E00C942933FC018091DF03909154
:10123000E00386179707A0F06115710529F49091D6
:10124000E8009E779093E80090E06115710551F4F5
:10125000911108C08091E80082FF34C080E00895B9
:10126000BC01F2CF8091D7038823C1F18530C1F151
:101270008091E80083FD30C08091E80082FDEACFD4
:101280008091E80080FFE1CF8091F3002091F2008F
:10129000382F6115710519F02830310558F091E0AB
:1012A0002830310509F090E02091E8002E77209356
:1012B000E800CBCF81918093F100615071092F5FDD
:1012C0003F4FE7CF8091D703882341F0853041F02D
:1012D0008091E80083FFBECF81E0089582E0089509
:1012E00083E008958091B403089587E797E790938A
:1012F00001088093000888E19AE00FB6F894A89559
:10130000809360000FBE90936000FFCFCF92DF927A
:10131000EF92FF922FB7F894C090AC03D090AD033A
:10132000E090AE03F090AF032FBFA7019601261BFC
:10133000370B480B590BCA01B901FF90EF90DF90B2
:10134000CF9008952FB7F8946091AC037091AD03DE
:101350008091AE039091AF032FBF08952091C501F6
:101360002223C9F02091B00327FF15C0E62FE69590
:10137000E695E695EE31D8F4E80FF92FF11D677088
:1013800021E030E001C0220F6A95EAF720958281C2
:10139000282322830895FC01329608962191621336
:1013A00003C0DF0111971C92E817F907B9F70895F8
:1013B0002091C5012223C1F02091B00327FF14C062
:1013C000E62FE695E695E695EE31F8F4E80FF92F6D
:1013D000F11D677021E030E001C0220F6A95EAF745
:1013E0008281822B82830895FC0132962FEF30E0B8
:1013F0004191641751F02F3F19F4411101C0232F7F
:101400003F5F3630A9F72F3F09F40895820F911DF1
:1014100027FD9A95FC0162830895A3E0B0E0E3E123
:10142000FAE00C9413332091A9033091AA032817F2
:101430003907A1F09093AA038093A903E091A70331
:10144000F091A803309751F024E029839B838A838D
:101450000680F781E02DCE01019609952396E2E002
:101460000C942F33A3E0B0E0E8E3FAE00C941333DC
:101470002091A5033091A60328173907A1F0909376
:10148000A6038093A503E091A703F091A8033097EA
:1014900051F023E029839B838A830680F781E02D26
:1014A000CE01019609952396E2E00C942F33E0914A
:1014B000A703F091A803309739F022E0DC012C93C8
:1014C0000480F581E02D0995089520911E0436E0F1
:1014D000839FC0011124629F800D911D11248115ED
:1014E00022E0920714F090E080E08F5D9B4F909394
:1014F0002806809327060895FC01680F791F8FEF57
:1015000091E32191822728E030E087FF09C0880F0E
:10151000892721503109C9F7E617F70791F7089590
:10152000880FF7CF80914D0380FD16C081FD16C056
:1015300082FD16C080914C038823A1F0883280F48C
:1015400028E0829FC001112468E270E00E944633C7
:10155000862F672B39F0089582E0089584E008957E
:1015600088E0089581E0089580914D0380FD14C0C6
:1015700081FD14C082FD16C080914B03882381F049
:101580008E3180F420E5829FC00111246EE170E06D
:101590000E944633862F089584E1089588E20895D5
:1015A00088E0089580E5089580E00895F894E82F94
:1015B000E295EF70F0E031A1282F2F7081E090E0EC
:1015C00001C0880F2A95EAF7982F9095932391A34D
:1015D00092A1892B82A3789408959091B00392FFF1
:1015E00006C0282F28712830F9F4877F846093FF84
:1015F00006C0282F28712831F1F4877E846120915C
:10160000B10320FF06C0382F38713830D9F4877FF6
:10161000816021FF06C0282F28712831D1F4877EF0
:10162000816194FD877E0895282F24712430F9F676
:101630008B7F8860DCCF282F2471243101F78B7ECB
:101640008861DDCF382F3171313019F78E7F886096
:10165000E0CF282F2171213121F78E7E8861E1CFE3
:1016600082389105B9F1B0F48133910509F47DC058
:1016700048F48932910509F46DC08A32910509F464
:101680007BC008958533910509F45FC089339105C6
:1016900009F10895833E9105D9F138F4803E910512
:1016A00029F1823E910579F10895863E9105D9F19F
:1016B000873E910509F43EC0843E910541F5209195
:1016C000B10321FF24C08091B00384FD19C087EECF
:1016D00090E008952091B003237009F05AC0209142
:1016E000B10323FF14C089E290E008952091B00374
:1016F00020FD38C03091B10330FF09C024FF43C042
:1017000090E080E008952091B00322FDF7CF089586
:101710002091B00322FD3AC03091B10330FD39C0B1
:1017200024FFF5CFEDCF2091B00323FFF0CF24FDB0
:10173000E7CFCDCF2091B00323FD2EC03091B10370
:1017400031FFEECF84EE90E008952091B00325FFA5
:10175000DECFC9CF2091B00325FD21C02091B10378
:1017600023FFD5CF89E390E0D2CF2091B00326FFAD
:10177000CECF8AE290E008952091B00326FFC7CF34
:1017800081E390E0089583EE90E0089582EE90E08A
:10179000089580EE90E0089586EE90E0089585E348
:1017A00090E00895972F7830B8F46630A8F485302B
:1017B000B0F470E026E0929F600D711D1124FB01D2
:1017C00090E3899FE00DF11D1124EE0FFF1FE55AF4
:1017D000FE4F85919491089580E090E0089581E016
:1017E000FCCF1F93CF93DF930E94300BEC01C11508
:1017F00080E5D807F0F5C11580E4D80708F09CC053
:10180000C03ED10520F5CD3CD10508F082C0C83AD4
:10181000D10578F4C53AD10508F073C0C130D105BF
:1018200019F1209709F1C430D105F0F4D0E0C0E0FF
:101830001BC0C33CD105D0F7C85AD0E0CC0FDD1F88
:10184000C153DE4F0990D881C02DD4640DC0C1159D
:1018500080E2D80708F0D1C0C11581E0D80708F0B0
:101860005AC0C83ED10510F7CE01DF91CF911F912C
:101870000895C03682E5D80718F5C03482E5D80748
:1018800008F06BC0C03282E5D80708F05FC0C11510
:1018900082E5D80708F497C02C2F2695269580E27C
:1018A000289F900111248C2F8370C1E0D0E002C0EA
:1018B000CC0FDD1F8A95E2F7C22BD32BDD68D4CF86
:1018C000C03A82E5D80760F4C03882E5D80708F44A
:1018D00059C0CF71D0E0DC2FCC27C46FD06AC4CF01
:1018E000C03C82E5D80708F462C0C03E82E5D80754
:1018F00008F09CCFDC2FCC27CC27DF71C06FD06ADB
:10190000B3CFC55AD0E0C453DE4FC881D0E0D06415
:10191000ABCFD065A9CF8D2F0E94ED0A182FCE0135
:1019200099270E94300BC12FD0E0DC2FCC27CC2789
:10193000DF71C82BD92B98CFCE0199270E94300B8D
:10194000CC27DF70C82BD92BD06A8ECFCF71D0E0D7
:10195000DC2FCC27C16FD06A87CF2C2F26952695F8
:10196000277080E2289F900111248C2F8370C1E0A2
:10197000D0E002C0CC0FDD1F8A95E2F7C22BD32B3B
:10198000DC6872CF2C2F26952695277080E2289F41
:10199000900111248C2F8370C1E0D0E002C0CC0FE5
:1019A000DD1F8A95E2F7C22BD32BDA685DCF8C2F2F
:1019B0008F710E94ED0AC82FD0E0DC2FCC27CC27F6
:1019C000DF71D06251CF8C2F8F710E94ED0A55E0EC
:1019D000D695C7955A95E1F7CF70D0E0DC2FCC278C
:1019E000282F30E084FF05C044E0220F331F4A95C2
:1019F000E1F7C22BD32BD06937CF8D2F8F710E9487
:101A0000ED0A182FCE0199270E94300BC12FD0E08C
:101A1000DC2FCC27CC27DF71C82BD92BD2CF8095D8
:101A20009091A00398239093A0030895809590919E
:101A3000A10398239093A103089580911A04909193
:101A4000E103981301C008958F5F8770FACFB0E06B
:101A5000A0E0EDE2FDE00C940C337C0100917003FA
:101A6000109171038091EC029091ED02082B192BDB
:101A7000CFE0D0E0CC24C394D12CBC2EC6010C2ED8
:101A800002C0880F991F0A94E2F780239123892BC3
:101A900049F4219790F7B12C8B2DCDB7DEB7E9E053
:101AA0000C942833B7018C2F0E94D20B0E94F10BAB
:101AB000019779F3F1CFCF93DF93EC010E94270DCB
:101AC000BE010E94D20B0E94F10BDF91CF910895CD
:101AD000983078F5863068F5E82FF0E086E0989F3A
:101AE000E00DF11D11249E2F977083E0F695E79588
:101AF0008A95E1F7EE0FFF1FEE0FFF1FEE5AFD4F25
:101B000050E040E080E0219130E0092E02C036959F
:101B100027950A94E2F721703327042E01C0220F83
:101B20000A94EAF7822B4F5F5F4F4430510559F713
:101B3000089580E00895983098F5863088F5E82F6C
:101B4000F0E086E0989FE00DF11D11248E2F877044
:101B500041E001C0440F8A95EAF783E0F695E795E6
:101B60008A95E1F7EE0FFF1FEE0FFF1FEE5AFD4FB4
:101B700030E020E070E05191DF011197CB01022E9F
:101B800002C0969587950A94E2F781708195852722
:101B9000842385278C932F5F3F4F2430310559F7DD
:101BA000089540917003509171034115510561F002
:101BB00021E030E002C0220F331F8A95E2F7242390
:101BC000352381E0232B09F480E00895909371037D
:101BD00080937003089521E030E002C0220F331F8C
:101BE0008A95E2F72095309580917003909171036A
:101BF000822393230E94E60D0895909171028095AF
:101C0000892380937102282F277069F4891759F06E
:101C10009091B10392FF07C08695869586950E94A4
:101C2000EB0D10927102089521E030E002C0220F06
:101C3000331F8A95E2F78091700390917103822B94
:101C4000932B0E94E60D08959093ED028093EC0291
:101C5000089592959F70963091F058F4925F9F701E
:101C6000923058F4803F19F030F4883E30F481E02F
:101C700008959A5FF4CF843FD1F380E00895883EC1
:101C8000B0F3813FD1F7F3CFFC012481222339F057
:101C9000808191810E945B0D0E94290E089580E051
:101CA0000895A6E0B0E0E7E5FEE00C94123326E0EC
:101CB000FC01DE01119601900D922A95E1F7FC01DD
:101CC000258189819A81222399F0662389F00E94D7
:101CD000270D182F682F89819A810E949B0D698199
:101CE0007A81812F0E94D20B2696E3E00C942E334A
:101CF0000E94680D182FF3CF9C013A9521153F41A2
:101D000050F5FC01EE27F170BC0166277270AC0142
:101D1000442754709C012227387094FF0EC080E144
:101D2000EF2B09F480E0672B09F08062452B09F066
:101D30008064232B89F08068089581E0EF2B09F4FB
:101D400080E0672B09F08260452B09F08460232B2B
:101D500019F08860089580E008958533F9F484E2ED
:101D600096E890937A0090EA90937B008F7180645C
:101D700080937C0080917A00806480937A008091C7
:101D80007A0086FDFCCF80917800209179009091B7
:101D90007A009F7790937A00922F089583E2E0CFA4
:101DA000CF93DF93682F81E06A3019F06D3031F402
:101DB00080E00E94910FDF91CF91089580912706D6
:101DC0009091280626E0FC01A1E2B6E001900D9278
:101DD0002A95E1F7603E08F458C026E0FC01119214
:101DE0002A95E9F7C0912706D091280646E050E0F1
:101DF000BE0181E296E00E94F7349E0121523440F8
:101E0000892B41F1C90145E0969587954A95E1F7FF
:101E100041E050E0BA0102C0660F771F8A95E2F7F1
:101E2000CB0160911F0470912004862B972BB90180
:101E30006B5F7F4FE5E076956795EA95E1F702C025
:101E4000440F551F6A95E2F7842B952B909320043D
:101E500080931F042A5F3F4F40911E04642F70E05F
:101E6000C9010E94EF32481B463010F4240F311D87
:101E7000211572E0370710F030E020E02F5D3B4F76
:101E8000309328062093270696CFF6E06F9FB00187
:101E900011246351764F46E050E00E94C333A2CF35
:101EA000CF93DF93EC01FE018491811103C0DF9198
:101EB000CF9108950E94D00E2196F5CF83E00E9425
:101EC000D10D882329F088E091E00E94500F0895F9
:101ED00081E00E94D10D882319F088EF90E0F5CFC2
:101EE00082E00E94D10D882319F088EE90E0EDCFBA
:101EF00084E00E94D10D882319F088ED90E0E5CFB1
:101F000088EC90E0E2CF82EC90E00E94500F0895C0
:101F100082EB90E00E94500F8CEA90E00E94500FFC
:101F20000895CF93382FE0912706F0912806E152CB
:101F3000F44020911E04622F70E0CF010E94EF3226
:101F4000281B822F332361F066E00E943A33C82FAA
:101F5000C15010F4CF91089580E20E94D00EF8CFC6
:101F60009F01280F311D2115324018F080E0F0E06C
:101F7000E0E08E0F9F2F911D8F5D9B4F9093280661
:101F800080932706E7CFCF93DF9346E050E068E5E4
:101F900073E08EE593E00E94F734EC01892B21F089
:101FA0008EE593E00E94570A90915F0386E0EEE58C
:101FB000F3E0DF01282F1D922A95E9F790935F0344
:101FC000A8E5B3E001900D928A95E1F781E0CD2B71
:101FD00019F4911101C080E08170DF91CF910895D3
:101FE0008091A1039091A003892B80932C02909162
:101FF0006C039923A1F0892B80932C028091C50159
:102000008823E1F18091B00387FF38C08EE1EEE2D2
:10201000F2E090E08150A0F5911110926C0340E243
:1020200050E062E772E08CE292E00E94F734892B84
:1020300021F180E2ECE2F2E0A2E7B2E001900D9241
:102040008A95E1F7E091A703F091A8033097A9F0F2
:102050008091C501882359F08091B00387FF07C0A4
:1020600080912C0280932D0286E080932C020280C6
:10207000F381E02D8CE292E00995089586E0C7CFC8
:102080002191222339F29F5FC5CFCF93DF93EC01DB
:10209000EA85FB85309719F06C857D8509958B81E4
:1020A0000E940F0D8C810E94160D0E94F00F86E099
:1020B000FE0111928A95E9F7DF91CF910895CF93B0
:1020C000DF93EC018D8181FD18C082608D8380914A
:1020D000A0039B81892B8093A0038091A1039C8105
:1020E000892B8093A1030E94F00FE885F985309732
:1020F00021F06C857D85CE0109951092A303109285
:10210000A2038D8180FD03C0CE010E944510DF91A6
:10211000CF910895882321F00E940F0D0E94F00FA7
:102120000895882339F09091A003982B9093A003F1
:102130000E94F00F0895882321F00E94160D0E943E
:10214000F00F0895882339F09091A103982B909374
:10215000A1030E94F00F08950F931F93CF93DF9375
:10216000EC01FC0101900020E9F78F0101501109F9
:10217000C017D10728F0DF91CF911F910F910895DB
:1021800089910E94D00EF4CF0F931F93CF93DF93CA
:102190008B01EA019091D703943061F58093E900B7
:1021A0008FEF9091E800815095FD06C095ED9A95CE
:1021B000F1F700008111F5CF8091E80085FF1AC08A
:1021C0000E943708811111C08091E80085FD06C08A
:1021D0008091E8008E778093E800F2CFF80181913A
:1021E0008F018093F100219779F78091E8008E7735
:1021F0008093E800DF91CF911F910F91089543E004
:1022000050E0BC0182E00E94C410089546E050E016
:10221000BC0182E00E94C4100895CF93DF93EC01CB
:102220008091C501811111C048E050E0BE0181E0FC
:102230000E94C41080E2FE01A5EBB3E001900D9274
:102240008A95E1F7DF91CF9108958091B00387FFE0
:1022500005C040E282E050E0BE01EACF48E081E004
:10226000FACFB0E0A0E0E7E3F1E10C940B337C019E
:102270005B016A018091D90201E010E08A3010F41C
:102280000AE010E0C1E0D0E0B501C701F601099510
:10229000811104C021960C171D072CF4CDB7DEB7B1
:1022A000EAE00C942733CC9F9001CD9F300D300D88
:1022B000112490E080E045E34A95F1F70000019693
:1022C00082179307C1F7E0CF8091A002811110C05F
:1022D0008091D80080618093D8008AE18A95F1F7D7
:1022E00000C08091D90080FF0AC081E08093A002E5
:1022F00081E09091A002913009F080E0089582E0A1
:102300008093A0020E9418081092D703F1CF0E9478
:102310006411811103C08091A4030895E091A70383
:10232000F091A803309729F00190F081E02D0995F4
:10233000089580E008950F931F930E9464118823ED
:1023400029F00E94A2091F910F9108950E94A209ED
:102350000091DA021091DB022091DC023091DD0263
:10236000600F711F821F931FEECF0E949B11089573
:10237000B0E0A0E0EEEBF1E10C940D336C017B01D9
:1023800064E670E088E70E944D308C01E601EC0CB9
:10239000FD1C17FD0BC0FE01849164E670E00E94F5
:1023A000B9308C012196CE15DF0599F70E942F31A7
:1023B00081E00115110509F080E0CDB7DEB7E8E056
:1023C0000C94293380919C0390919F03911103C039
:1023D00091E089270895882369F062E070E08FE535
:1023E00093E00E94B811811103C080919C0308956D
:1023F00010929C0380919C03EBCFCF93C0919C03E0
:1024000080919F038823D1F00E94A209605D7A48E1
:102410008F4F9F4F609398037093990380939A0313
:1024200090939B03C11108C062E070E08DE593E0DA
:102430000E94B811811105C0C0919C038C2FCF91CF
:10244000089581E080939C03F7CF9091B10392FBB4
:10245000222720F9281779F080FB92F99093B10395
:102460006091B0037091B10384E090E00E9449351F
:1024700082E00E94FD0D0895B0E0A0E0E2E4F2E108
:102480000C940E337901C82F880FDD0B41155105CF
:10249000A9F0FE0193E0EE0FFF1F9A95E1F7E65ECB
:1024A000FE4F818192818F559D4F208130E04217F0
:1024B000530708F49A01A9010E940435CE010E9435
:1024C0007932D82E8823D1F001151105B9F083E0B7
:1024D000CC0FDD1F8A95E1F7FE01E65EFE4F4381DA
:1024E00050E00417150708F4A801C65EDE4F6C81A2
:1024F0007D816F557D4FC7010E9404358D2DCDB76D
:10250000DEB7E7E00C942A33A3E0B0E0EAE8F2E1BA
:102510000C9411336091D1027091D2028091D30258
:102520009091D4020E94860941E0643671058105CC
:10253000910508F440E03091A103398364367105B8
:102540008105910520F42091B102231341E090917F
:10255000A0039A83411106C041E02091B2022913E1
:1025600001C040E090916C039B83411105C08091B4
:10257000B30211E08917C9F010E000E030E020E07C
:1025800043E050E0BE016F5F7F4F88E00E943C1245
:10259000182F882351F00E94A2096093D1027093F2
:1025A000D2028093D3029093D402812F2396E4E049
:1025B0000C942D33A4E0B0E0E0EEF2E10C94113382
:1025C0006091C1027091C2028091C3029091C402D5
:1025D0000E94860911E0643671058105910518F1A4
:1025E0000E949B116E5F7F4F8F4F9F4F69837A834D
:1025F0008B839C8310E000E030E020E044E050E07A
:10260000BE016F5F7F4F84E00E943C12182F882329
:1026100051F00E94A2096093C1027093C20280939C
:10262000C3029093C402812F2496E4E00C942D33CE
:10263000B0E0A0E0EEE1F3E10C940B33C82F7B0196
:10264000D42F69015801FB016081718182819381DE
:102650000E948609643671058105910510F4DD2319
:10266000C9F010E000E030E020E0A501B6018C2FB9
:102670000E943C12C82F882339F00E94A209F7015A
:1026800060837183828393838C2FCDB7DEB7EAE0BA
:102690000C942733C1E0F8CFA1E0B0E0E2E5F3E12C
:1026A0000C94113380919C0389832091B40290E0B3
:1026B00041E02817190609F440E001E010E09E010E
:1026C0002F5F3F4F65ED72E089E00E94181321965D
:1026D000E4E00C942D33A1E0B0E0E1E7F3E10C94E9
:1026E00011330E948711898341E09091B0029813C1
:1026F00001C040E001E010E09E012F5F3F4F6DEC14
:1027000072E087E00E9418132196E4E00C942D33C8
:102710000F931F9341E02091AC023091AD02809164
:102720007003909171032817390709F440E002E023
:1027300010E020E733E069EC72E085E00E941813B6
:102740008823B1F041E02091AE023091AF02809138
:10275000EC029091ED022817390709F440E002E0FD
:1027600010E02CEE32E065EC72E086E00E94181377
:102770001F910F910895A1E0B0E0E1ECF3E10C941A
:102780000833762E4A015901680101E010E09E01EC
:102790002F5F3F4F50E040E070E060E00E943C124D
:1027A000182F882399F1F4016081718182819381CE
:1027B0000E948609643671058105910538F4B701D8
:1027C000C6010E947C0A9981891701F18701950150
:1027D00050E040E070E060E0872D0E943C12B82E8F
:1027E000B701C6010E947C0A11E09981981310E09C
:1027F0001B2139F00E94A209F40160837183828356
:102800009383812F2196EDE00C942433A701B60128
:10281000C5010E940435F5CFA4E0B0E0E2E1F4E1A7
:102820000C940D336B0184E0E82EF12C02EA12E0E7
:102830009E012F5F3F4F49EB52E061E080E00E9434
:10284000BB13882361F049815A816B817C8140935D
:10285000B5025093B6026093B7027093B8024091EC
:10286000B5025091B6026091B7027091B802F601BC
:1028700040835183628373832496E8E00C94293368
:102880001F920F920FB60F9211242F933F934F93E5
:102890005F936F937F938F939F93AF93BF93EF93C8
:1028A000FF938091E10082FF09C08091E20082FFE6
:1028B00005C08091E1008B7F8093E1008091DA0078
:1028C00080FF24C08091D80080FF20C08091DA0072
:1028D0008E7F8093DA008091D90080FF9DC080E1D7
:1028E00089BD82E189BD09B400FEFDCF81E08093FE
:1028F000D7038091B203811109C00E9418080E9479
:10290000B9088091E20084608093E2008091E10048
:1029100080FF17C08091E20080FF13C08091E20029
:102920008E7F8093E2008091E20080618093E200DC
:102930008091D80080628093D80019BC85E0809394
:10294000D7038091E10084FF2BC08091E20084FFD7
:1029500027C080E189BD82E189BD89B5982F91703A
:1029600080FFFBCF8091D8008F7D8093D80080912D
:10297000E1008F7E8093E1008091E2008F7E809362
:10298000E2008091E20081608093E2008091D803B0
:10299000882309F447C084E08093D7038091D7034C
:1029A0008091E10083FF27C08091E20083FF23C074
:1029B0008091E100877F8093E10082E08093D703DC
:1029C0001092D8038091E1008E7F8093E100809186
:1029D000E2008E7F8093E2008091E200806180932C
:1029E000E20042E060E080E00E9487088091F00011
:1029F00088608093F000FF91EF91BF91AF919F911C
:102A00008F917F916F915F914F913F912F910F9097
:102A10000FBE0F901F90189519BC1092D7031092FB
:102A2000B20374CF8091E30087FD93E09093D703C6
:102A3000B5CF78941F921FB61F9211248F939F9346
:102A4000AF93BF938091AC039091AD03A091AE037F
:102A5000B091AF030196A11DB11D8093AC0390937B
:102A6000AD03A093AE03B093AF03BF91AF919F911D
:102A70008F911F901FBE1F9018959C014FB7F8941F
:102A80008091AC039091AD03A091AE03B091AF03E0
:102A90004FBF821B930B08952FB7F8948091AC031E
:102AA0009091AD03A091AE03B091AF032FBF0895F5
:102AB0002F923F925F926F927F928F929F92AF92EE
:102AC000BF92CF92DF92EF92FF920F931F93CF931B
:102AD000DF9380919F03882309F499C080919D031F
:102AE00090919E030E943D15C29708F470C00E9409
:102AF0004C1590939E0380939D0360E080E00E94BC
:102B0000650A8091640390E090936F0380936E0355
:102B10000E94871180936D030E946411882309F439
:102B2000AFC00E94880F81E693E00E94500F0E9480
:102B3000830F0E94830F0E945E0F60916803709163
:102B4000690380916A0390916B030E948609693C36
:102B5000710581059105D8F10E94A209609368036F
:102B60007093690380936A0390936B03809167036A
:102B7000811104C08091BC0181115BC06FE080E0D5
:102B80000E94650A86EC91E00E94AC106CE080E047
:102B90000E94650A81E08093BC018091660390E009
:102BA0000196817099278093660321E030E0281B0D
:102BB000390B40E6429FC001439F900D11242091A4
:102BC0006D0321FF43C08959994F0E94B607809138
:102BD0001F0490912004892B09F0FDC080919C0373
:102BE0008823A9F00E94A2090091980310919903EB
:102BF00020919A0330919B03601B710B820B930B06
:102C00006F3F7F4F8F4F9F4710F40E94E211DF917B
:102C1000CF911F910F91FF90EF90DF90CF90BF90D9
:102C2000AF909F908F907F906F905F903F902F908C
:102C300008956CE080E00E94650A86EC91E00E94B5
:102C4000AC106DE080E00E94650AA7CF209165037B
:102C5000222319F089559A4FB8CF20916E033091F5
:102C60006F032B3031051CF489519B4FAECF2932B5
:102C700031051CF4895D9B4FA8CF89599C4FA5CF86
:102C80000E94880F87E297E00E94500F0E94830FF6
:102C90000E94830F0E945E0F0E94830F0E94830F89
:102CA000C0916C038091A103C82BDC2FD878C47429
:102CB000DD2319F180E597E00E94500F89E497E049
:102CC000CC2319F18BE497E00E94500F82E497E047
:102CD000C11102C08FE397E00E94500FDD23D9F0AD
:102CE0008CE397E00E94500F87E397E00E94500F1B
:102CF000C1111BC08DE297E01AC08DE497E00E94DD
:102D0000500FC11105C085E497E00E94500FE2CF3B
:102D100087E497E0D9CF89E397E00E94500FCC2356
:102D200089F185E397E00E94500F80E397E00E94CD
:102D3000500FC0916C038091A103C82BDC2FD1717F
:102D4000C272DD2321F186E797E00E94500F8FE6E3
:102D500097E0CC2321F181E797E00E94500F88E6AD
:102D600097E00E94500FDD2311F182E697E00E9468
:102D7000500F8DE597E00E94500FC11122C083E5EE
:102D800097E021C083E397E00E94500FB3CF83E721
:102D900097E00E94500FC11107C08BE697E00E9498
:102DA000500F85E697E0DDCF8DE697E0D6CF8FE533
:102DB00097E00E94500FCC2349F08BE597E00E94EA
:102DC000500F86E597E00E94500F01CF89E597E00C
:102DD0000E94500FD4CF80919F03882309F4FECE28
:102DE000809197038111FACE0E94FD1120911F045A
:102DF000309120042115310509F4F0CE80E041E046
:102E000050E0082F10E01A01082E02C0220C331CDB
:102E10000A94E2F7B10162237323672B11F48F5FE9
:102E2000F0CF9091960390FF95C0880F880F880F80
:102E30008093C0011092C301895F8093C10183E038
:102E40008093C40124E630E047E050E06EEB71E08F
:102E500088E70E94E730892B09F0C0CEA80125E061
:102E6000440F551F2A95E1F78091960380FF84C097
:102E7000E6E7F3E080E2DF011D928A95E9F7A5E23B
:102E8000B2E001E212E089E2C82E82E0D82E97E09B
:102E9000592E772473948D91E80129918E01240F86
:102EA000352F311D2F5D3B4FE82FF0E0EA58FC4FE6
:102EB00090E080E0652C681A872C082E01C0880CF1
:102EC0000A94EAF77901A12CE701B9907E01B820B4
:102ED000662D6A196770962E062E000C770BDB2D77
:102EE00001C0DD0F9A94EAF77195619571096770D9
:102EF000772701C0B6946A95EAF7BD2A6081962EBD
:102F00009B289082A39468E0A612DECF01963196AA
:102F10008830910579F6CA16DB0609F0BCCF04E6C5
:102F200010E020E230E046E753E060E488E70E94EA
:102F30000831892B09F052CEE101C095D0958091DE
:102F40001F0490912004C823D923D0932004C09358
:102F50001F0444CE8295880F80768093C00198012B
:102F600036952795369527952093C301815E8093EA
:102F7000C1012093C40166CF4F5D5B4F04E610E0B2
:102F800020E230E0D2CF0E944C159C019091540376
:102F900080915503982B21F03093510320935003D7
:102FA0009091560380915703982B21F030934F0353
:102FB00020934E0382E593E00E94570A08951092F1
:102FC000A1038091C501EEE2F2E0882329F180910E
:102FD000B00387FF21C08EE1DF011D928A95E9F7DA
:102FE00090E080E00E94320A90E080E00E940D0AAA
:102FF0001092A0030E94F00F86E0E2E5F3E0DF010B
:103000001D928A95E9F710924B0310924C0310928F
:103010004D030E94C317089586E0DECFAAE2B0E018
:10302000E4E1F8E10C94123389ED93E02091F10092
:10303000FC012193CF01F3E0813E9F07B9F7809116
:10304000DA03833009F470C0B8F4813009F447C062
:10305000823009F4B1C08091E80083FF7EC2809184
:10306000D9039091DA039A3008F077C2E92FF0E0A3
:10307000E053F94C0C949B338A3009F48CC08B30AC
:1030800009F46FC0893039F78091D903813219F77B
:103090008091DD039091DE030297E8F68091E800CD
:1030A000877F8093E8008091E80082FF38C090918C
:1030B000F3008091F200029731F48091F1008130A9
:1030C00011F0863021F48091F1008093B403809157
:1030D000E8008B778093E8000E946808BCCF80915D
:1030E000D903813A09F0B7CF8091E800877F8093B8
:1030F000E8008091DD039091DE03892B61F460E2AA
:1031000085EB93E070E00E9414098091E8008B77D2
:103110008093E800A0CF60E090E080E0F3CF809162
:10312000D7038111C0CF97CF8091D903813A09F09D
:1031300092CF8091DD039091DE03892B09F08BCF34
:103140008091E800877F8093E8008091E80080FF0D
:10315000FCCF8091C5018093F1008091E8008E77CB
:10316000B9CF8091D903813209F075CF8091DD0309
:103170009091DE03892B09F06ECF8091E800877F64
:103180008093E8000E9468088091DB038093C5016A
:103190000E94DF1760CF8091D903813209F05BCFA5
:1031A0008091E800877F8093E8000E946808809102
:1031B000DC038093B3034FCF8091D903813A09F0A8
:1031C0004ACF8091E800877F8093E8008091E800F3
:1031D00080FFFCCF8091B303BECF803899F0823856
:1031E00009F0BBC18091DD038F70873008F0B5C155
:1031F0008093E9008091EB0085FB882780F910928D
:10320000E90006C08091D5039091D60391118260A8
:103210009091E800977F9093E8008093F1001092DE
:10322000F1008091E8008E7794C1882309F482C16F
:10323000823009F092C18091DB03811185C18091B8
:10324000DD038F702FEF280F263008F086C18093A2
:10325000E9002091EB0020FF77C1933031F4809199
:10326000EB0080628093EB006FC19091EB00906166
:103270009093EB0021E030E001C0220F8A95EAF73D
:103280002093EA001092EA008091EB008860EACF78
:10329000811163C11091DB031F778091E300807877
:1032A000812B8093E3008091E800877F8093E80082
:1032B0000E9468088091E80080FFFCCF8091E300C5
:1032C00080688093E30082E0111183E08093D7034C
:1032D00044C18058823008F040C18091DB03909156
:1032E000DC038C3D23E09207A1F583E08A838AE228
:1032F00089834FB7F894DE01139620E03EE051E257
:10330000E32FF0E050935700E49120FF03C0E295D3
:10331000EF703F5FEF708E2F90E0EA30C0F0C796FD
:103320008D939D932F5F243159F74FBF8091E80013
:10333000877F8093E8006AE270E0CE0101960E94E8
:1033400014098091E8008B778093E80006C1C0964D
:10335000E7CF4091DD035091DE03292F332723303F
:10336000310509F444C078F52130310509F46FC006
:103370008BE390E0ECECF8E02230310509F0EDC091
:103380002091E800277F2093E8002091DF0330910F
:10339000E0038217930708F49C0140E021153105F2
:1033A00009F064C0411162C08091E80082FDC9CF7C
:1033B0008091D703882329F2853019F28091E800A3
:1033C00083FFF2CFBECF21323105A9F12232310580
:1033D00009F0C3C04115510509F443C041305105FE
:1033E00009F0BBC086EB90E0E6EDF7E0C9CF992786
:1033F00081309105C1F0009759F0029709F0ADC0F6
:10340000E9E1F9E0E4918E2F90E0E9E1F9E007C00D
:10341000E9E3F9E0E4918E2F90E0E9E3F9E0009729
:1034200009F49BC0ADCFE7E2F9E0E4918E2F90E084
:10343000E7E2F9E0F4CF4115510571F04130510553
:1034400009F08BC089E090E0E7EFF8E099CF82E1E6
:1034500090E0E7E0F9E094CF89E090E0EEEDF8E06D
:103460008FCF80E490E0ECE8F8E08ACF8091D7033A
:10347000882309F466CF853009F463CF8091E80092
:1034800083FD5FCF8091E80082FD8ECF8091E800C0
:1034900080FF84CF9091F3008091F20021153105D7
:1034A00019F08830910550F041E0089709F040E0AC
:1034B0008091E8008E778093E80070CF449140932C
:1034C000F1003196215031090196E8CF803809F09A
:1034D00044C08091E800877F8093E8008091D80302
:1034E0008093F1009ECE811138C01091DB03123021
:1034F000A0F58091E800877F8093E8001093D803BF
:103500000E946808112311F084E005C08091E30057
:1035100087FDFACF81E08093D70342E061EC81E040
:103520000E94870842E261EC82E00E948708809155
:10353000D70313C08091DB03813079F481E09330AD
:1035400009F080E08093D6031092E9008091E800B2
:10355000877F8093E8000E9468088091E80083FFDD
:103560000AC08091E800877F8093E8008091EB009B
:1035700080628093EB00AA96E3E00C942E331F92B6
:103580000F920FB60F9211242F933F934F935F9397
:103590006F937F938F939F93AF93BF93CF93DF935B
:1035A000EF93FF93D091E900DF708091EC00C82F7A
:1035B000C17080FDC0E81092E9008091F000877F23
:1035C0008093F00078940E940E181092E900809188
:1035D000F00088608093F000CD2BCF70C093E9009D
:1035E000FF91EF91DF91CF91BF91AF919F918F911B
:1035F0007F916F915F914F913F912F910F900FBEEF
:103600000F901F9018950E94DF172FEF84E39CE026
:10361000215080409040E1F700C0000088E19AE02E
:103620000FB6F894A895809360000FBE9093600049
:10363000FFCF662309F472C08D3C41F40E94B40AA6
:103640008195809355030E94C31708958E3C19F409
:103650000E94B40AF6CF8F3C31F40E94B40A8195DF
:1036600080935403F0CF803D19F40E94B40AF8CF40
:10367000893D29F40E94920A80935603E4CF8A3D43
:1036800021F40E94920A8195F7CF8B3D31F40E947C
:10369000920A819580935703D6CF8C3D19F40E94EE
:1036A000920AF8CF9FE2980F983020F5282F215DDD
:1036B000330BA90121E030E001C0220F4A95EAF75F
:1036C00090915303922B90935303815D21E030E05E
:1036D000A90102C0440F551F8A95E2F7CA01209143
:1036E0005F03662309F493C0822B80935F030E94DB
:1036F000C30F08958D3D31F480914D038160809317
:103700004D03A1CF8E3D21F480914D038260F7CF10
:103710008F3D19F580914D038460F1CF9091540352
:103720008D3C59F42091550327FF0DC0109255038D
:1037300091110BC010924B0308C08E3CB1F4209144
:10374000550312169CF39923B1F0909156032091E2
:103750005703922B11F410924C03482F415D550BE7
:103760004830510508F4B1CF6ECF8F3C39F497FF44
:10377000EACF1092540390915503DACF803D19F4AB
:103780001916BCF3E0CF20915603893D29F4121697
:10379000D4F610925603D7CF8A3D19F427FFD3CF22
:1037A000F8CF209157038B3D29F427FFCCCF1092FF
:1037B0005703C9CF8C3D19F41216CCF3C4CF2FE2B6
:1037C000280F283088F4282F215D330BA90121E030
:1037D00030E001C0220F4A95EAF72095309153035B
:1037E000232320935303AFCF20914D032E7F8D3D94
:1037F00059F020914D032D7F8E3D31F08F3D09F022
:10380000A2CF20914D032B7F20934D039CCF809519
:1038100082236BCF882399F19CEF980F913A40F463
:10382000682F8CE292E00E94AE090E94F00F08958A
:1038300090E2980F983050F4877091E001C0990F92
:103840008A95EAF7892F0E94160DEFCF9BE5980F16
:10385000933028F490E080E00E94320A089598E5C1
:10386000980F9B3128F490E080E00E940D0A0895A3
:1038700093E3980F933118F460E00E94191B0895A8
:10388000CF93DF93EC010E940A1CCE010E947C0EB4
:103890009E01205E31092830310510F0CD2B29F42E
:1038A0000E949B10DF91CF9108950E948A10FACF59
:1038B000FC018281813031F4FB01808191810E9481
:1038C000401C08958230E9F7FB0182819381F7CF94
:1038D000CF93C82F8823D9F18CEF8C0F813AC8F58C
:1038E0008091C501882311F18091B00387FF1EC02C
:1038F000EC2FE695E695E695F0E0E45DFD4F8281DC
:1039000090E04C2F477021E030E002C0220F331FBF
:103910004A95E2F782239323892B91F06C2F8CE256
:1039200092E00E94AE090E94F00F0AC0EEE2F2E0BF
:1039300084E392E02191C21789F38E179F07D1F794
:103940006C2F8CE292E00E94D8090E94F00FCF9178
:10395000089580E28C0F883068F4C77021E030E071
:1039600001C0220FCA95EAF78091A103822B8093B0
:10397000A103EBCFEBE5EC0FE33040F4F0E0E453D0
:10398000FE4F808190E00E94320AE1CFE8E5EC0F23
:10399000EB3150F4F0E0EE0FFF1FE153FE4F80815A
:1039A00091810E940D0AD3CF83E38C0F833178F687
:1039B00061E08C2F0E94191BCACF1F93CF93DF9316
:1039C000182FEB010E94681C209739F4812F0E9468
:1039D0000A1CDF91CF911F9108958FE99FE0019715
:1039E000F1F700C000002197EFCF70E060E089336D
:1039F00011F460E570E00E94DD1C0895B0E0A0E0E5
:103A0000E4E0FDE10C940B33EC018AE0A82EFE010A
:103A10002491222309F497C0213009F03EC0319649
:103A20008491813031F42296FE0184910E94F51C2C
:103A300007C0823039F42296FE0184910E94681CEE
:103A40002196E5CF833031F42296FE0184910E94C5
:103A50000A1CF6CF843009F074C02296FE0124912E
:103A600090E080E0FE0131962053330B2A3031057F
:103A700048F0019728F3EFE9FFE03197F1F700C034
:103A80000000F7CFA89EA001A99E500D1124C901E6
:103A9000840F951F2491EF01E5CFE22FF0E0E35969
:103AA000F64FB490822F86958695869590E0FC011E
:103AB000E35AF64FE4902770F12C022E02C0F594E1
:103AC000E7940A94E2F731E0E322FF24FC01E35B90
:103AD000F64FC490D12C022E02C0D594C7940A94FC
:103AE000E2F7E1E0CE22DD24FC01E35CF64F049135
:103AF00010E002C0159507952A95E2F7017011278D
:103B0000E114F10419F081EE0E94681CC114D10483
:103B100019F086EE0E94681C8B2D0E94F51CC114C2
:103B2000D10419F086EE0E940A1CE114F10419F088
:103B300081EE0E940A1C0115110509F481CF8CE267
:103B400075CFEF017DCFCDB7DEB7EAE00C94273318
:103B50000F931F93CF93DF93C62FD42F022FFC0117
:103B600085818823A9F060931D040E944C159093D1
:103B70001C0480931B04C77081E001C0880FCA95A4
:103B8000EAF70E94A210DF91CF911F910F91089543
:103B900080911D04681332C080911B0490911C0415
:103BA0000E943D15883C910548F510E21D0FCD1788
:103BB000B9F080E28C0F883040F4C77081E001C01A
:103BC000880FCA95EAF70E949B10183048F481E0EC
:103BD0009D2F977001C0880F9A95EAF70E94A21056
:103BE000802F0E94F51C183070F6D77081E001C05C
:103BF000880FDA95EAF70E949B10C5CFC77081E065
:103C000001C0880FCA95EAF7F6CFCF93C62F81116E
:103C10003DC083E00E94D10D882341F08CEC97E0F9
:103C2000C11102C082EC97E00E94FE1C82E00E945B
:103C3000D10D882339F08CEDC11101C08BED0E94AC
:103C4000F51C43C081E00E94D10D882329F08EEB42
:103C5000C111F5CF8DEBF3CFCC2361F08BEB97E067
:103C60000E94FE1C0E94DF178091A103817169F1FF
:103C70008AEDE5CF84EB97E00E94FE1C0E94DF17DF
:103C80008091A103817109F189EDD9CF8130E9F4E7
:103C900083E00E94D10D882349F08AEA97E0C111A0
:103CA00002C080EA97E00E94FE1C0FC082E00E94E2
:103CB000D10D882369F085E997E0C11102C08DE834
:103CC00097E00E94FE1C0E94DF1780E0CF910895CC
:103CD00081E00E94D10D882339F083E897E0C1117B
:103CE000E2CF89E797E0DFCF89EAC111A8CF8AEA5E
:103CF000A6CFA1E0B0E0EFE7FEE10C940C33EE2498
:103D0000E394F12C07EA12E09E012F5F3F4F4DEB49
:103D100052E063E082E00E94BB13C82E882339F191
:103D200000E080E01DC0D090DF02D00E2D2D30E0ED
:103D3000A9014E5B5C4F7A01E1E0F0E0EC0FFD1F62
:103D4000E00FF11D1081FA019081191BB12E1B1497
:103D50009CF0912F17FD90E0191B111118C00F5FF7
:103D60009091DE020917F8F281110E94B5118C2D95
:103D70002196E9E00C942833BA94F70180818F5F93
:103D8000808360E08D2D0E94051E8C2DE0CF1F5F8B
:103D9000F70180818150808361E08D2D0E94051E96
:103DA0008C2DDBCFCF93DF93EC010E947C0E9E0124
:103DB000205E31092830310510F0209741F40E942F
:103DC000A2108C2F0E94681CDF91CF9108950E9451
:103DD0009110F7CFFB01808191810E94D21E08953E
:103DE000CF93DF93EC018A81823041F4FB01828121
:103DF00093810E94D21E8D8182608D83DF91CF914D
:103E00000895AEE0B0E0E7E0FFE10C9403338E01EB
:103E10000F5F1F4F88E0D8011D928A95E9F757E0A0
:103E2000C52E52E0D52EF12CE12CAA24A394B12C5E
:103E3000F60181916F018F3F09F443C0F894E82F98
:103E4000E295EF70F0E021A18F70A50102C0440F50
:103E5000551F8A95E2F7CA01922F982B91A392A140
:103E60008095892382A3789400C0EBE0F2E0912C46
:103E700031E021912F3F09F4C8C0A22FA295AF7065
:103E8000B0E090968C9190E02F7002C09595879548
:103E90002A95E2F780FDB9C0832F982A330F52E0AC
:103EA000E131F50731F7F601319780818F3F11F04D
:103EB0000E94D60A80EA8A95F1F7F801EE0DFF1DFF
:103EC00090829FEFE91AF90AA4E0EA16F10409F0DA
:103ED000AFCF48E050E0B80182EE92E00E94F734A4
:103EE0007C01892B41F088E0F801A2EEB2E001905C
:103EF0000D928A95E1F70091EB0210E00E501D4FF4
:103F000010929802D0909702DD2009F4DFC10E9440
:103F10004C152091950230919602BC01621B730BE7
:103F200090939602809395026F3F710511F008F00F
:103F30006EC06115710509F464C0362EE091E0028F
:103F4000F091E102109297021092940230E020E08A
:103F5000512C412CC12CAA24A394B12C50E040E058
:103F6000C801820F931F9E878D87D901AE51BD4F27
:103F70003D01CF01840F951FDC019C90892CE894B2
:103F800080F8882061F1892C8694B92DB1709B2E20
:103F90008616170611F00CF03DC0DC019C929110C2
:103FA00040C0AD85BE859C90D3018C90C501042E88
:103FB00001C0880F0A94EAF7982D982380958921EB
:103FC000892B992D9827842C912C892A4424439459
:103FD0008114910409F4412CAD85BE858C934F5F0B
:103FE0005F4F4630510529F636962F5F3F4F2430FC
:103FF000310509F0B3CFC0929702409298025092D7
:104000009402EF2809F071C163C180E046CF6FEFE1
:1040100070E093CF8318880C8B2ADC018C92CD2C16
:10402000DECF5D2CDCCF552029F0D0FC03C06D2DF8
:1040300061706C9301968630910509F078C12A5F12
:104040003F4F8E169F0609F064C1C092970270928E
:104050009802E09098020E946411F82EE091EB0221
:10406000882309F4AAC019861A861B861C860E2F7F
:1040700010E00E501D4F8091D9028A3008F067C0C1
:104080004CE054E1BE01675F7F4FC8010E943111CF
:10409000882309F481C049E75EE1BE01675F7F4F75
:1040A000C8010E943111882309F476C04AED52E11B
:1040B000BE01675F7F4FC8010E943111882309F458
:1040C0006BC048E853E1BE01675F7F4FC8010E94A3
:1040D0003111882309F460C04BE653E1BE01675FEC
:1040E0007F4FC8010E943111882309F455C044E86C
:1040F00052E1BE01675F7F4FC8010E9431118823E2
:1041000009F44AC04CE453E1BE01675F7F4FC80128
:104110000E943111882309F43FC01092D902809186
:10412000EA0290E044E050E0BE01675F7F4F8E50AE
:104130009D4F0E94F73421E020939F02892BF1F4D8
:10414000F12C8F2D8E292E96E2E10C941F33809155
:10415000990290919A020E943D15843F914008F087
:104160008FCF80919F02882359F3FE01399684E016
:10417000DF011D928A95E9F710929F02E091EA0211
:10418000F0E0EE50FD4F89859A85AB85BC85808334
:104190009183A283B383D5CF8091D9028F3F31F031
:1041A0008F5F8093D9028A3008F4B9CF0E944C15F2
:1041B00090939A0280939902D4CFF0E0EE50FD4F95
:1041C00084E0A2EAB2E001900D928A95E1F764E002
:1041D00070E082EA92E00E947C0A8093A102409102
:1041E000470350E06091460370E06E5B7C4FCE0168
:1041F00009960E94043589858093A70261E070E0EA
:10420000CE0109960E947C0A8093A6028090A802A3
:104210009090A902A090AA02B090AB0280919B025C
:1042200090919C02A0919D02B0919E0288169906E1
:10423000AA06BB06D1F080929B0290929C02A092AB
:104240009D02B0929E020E94641181110EC00E94D4
:10425000A209861A970AA80AB90A8092DA029092ED
:10426000DB02A092DC02B092DD028091AC02909160
:10427000AD0290937103809370038091AE02909190
:10428000AF029093ED028093EC028091B002809394
:10429000A4039091B2028091B3022091B1022093C5
:1042A000A1039093A0039091B10392FF05C0909158
:1042B0006C03891380936C038091B402882319F0F6
:1042C0000E94FD113ECF0E94E2113BCFEF2839F44E
:1042D00080919402882309F4BCCED11006C00E94BC
:1042E0004C1590939602809395022091E0023091B4
:1042F000E102C09097027090980282EE282E82E030
:10430000382EF8014801B4E08B0E911CEE24E394A2
:10431000F12CD1016D901D018191682690E080E023
:104320005D01B1E0AB1AB1088F0101501109A9017B
:10433000480F591FB701082E01C0660F0A94EAF70B
:10434000DA01DC905D2CE89450F8462C462209F402
:104350006ACE51106FCED501CC90C622DD24D39405
:10436000C11001C0D12CBD2DBA60DB2EDA01DC9268
:10437000D0FE06C0D8014C9164276C9377247394C7
:10438000CC24C39457CEB0E0A0E0E9ECF1E20C9469
:104390000B338C01DC0114968C91882309F435C110
:1043A00061E0C8010E94510EEC01F801858188236B
:1043B00009F18091A2039091A3030097D9F0C81747
:1043C000D907C1F0FEE08F9FC0011124FC01E8581D
:1043D000FE4F2081246020838D589E4FDC01CD93B9
:1043E000DC930E945F101092A00361E0C8010E945C
:1043F000510EEC01F8014581442309F4BEC49E012D
:104400003A95CE0199272115FFE43F0738F090E057
:1044100080E0CF3FD10509F008F4CE01BC01645023
:1044200071096432710518F08B970E9780F4E09152
:104430000B03F0E0EE0FFF1FE05FFC4F80819181E6
:104440008F3F5FE7950719F001969183808380E2A3
:104450008093BD01D0937303C0937203CE01905239
:104460008115904278F0CE0190548115904108F06A
:104470003BC0F8018681807F51F421153F4108F04F
:104480003BC005C0D80116968C91807FD1F1FE010A
:10449000FF27ED33F10508F0EFC4E85EFE4FE4912D
:1044A000E093BD01D80111968C911197809375030B
:1044B0008C9180937403C234AEE7DA0709F48FC09D
:1044C00008F0C6C4C33ED10509F4BDC0C134EEE74F
:1044D000DE0709F4E0C4CC32D10599F481E0809381
:1044E00067031092BC010DC021153F4180F2CE013F
:1044F000805A92458097F8F2FE01CBCF81E00E946E
:10450000EB0DCE0197558F3F910511F008F0AAC031
:104510006E01DD24BEE0CB9FF0011124AF014D58A8
:104520005E4F7A01D80115968C91E858FE4F908124
:1045300080FB90F99083882309F48CC00E944C156D
:104540009093040380930303F70182818F5F82833A
:104550008091A0039091A103892B838380916C03A8
:1045600084830680F781E02D309731F0D7011C96C7
:104570006D917C91C70109958EE08C9DF0018D9D18
:10458000F00D1124ED58FE4F858181FF60C090E051
:1045900080E09093A2038093A303D80115968C9199
:1045A000882309F427C410921D04CE0190578397E5
:1045B00008F00AC484E090E00E9415359093B1039E
:1045C0008093B003FE01E150F047E232F10508F0BC
:1045D00072C0E652F94C0C949B334423D9F082E02C
:1045E0000E94140E8FED0E94681C809171028770EA
:1045F00061F0D80115968C91882339F08091B10330
:1046000082FF03C082E00E94FD0DCDB7DEB7EAE075
:104610000C94273382E00E94EB0D8FED0E940A1C60
:10462000E4CF83E0411107C083E00E94EB0DDDCFB2
:10463000442321F084E00E94140ED7CF84E0F5CF0C
:10464000109265035ECF81E0809365035ACF9C2F63
:104650008D2F9FCFFA01858181FF9FCFCA010E94D4
:1046600045109BCFFE01E851FC47E730F10508F00B
:1046700094CFE450F94C0C949B3326E241EE61EE6A
:10468000C8010E94A81DB1CF27E245EE65EEF8CF24
:1046900026E241EE60EEF4CF27E245EE64EEF0CF85
:1046A00026E241EE62EEECCF27E245EE66EEE8CF81
:1046B00028E241E0EBCF8091B00381608093B003AA
:1046C00095C08091B10388608093B1038FC08091C1
:1046D000B0038260F3CF8091B0038460EFCF80910C
:1046E000B0038860EBCF8091B1038160EDCF809102
:1046F000B1038260E9CF8091B0038061DFCF809108
:10470000B0038062DBCF8091B0038064D7CF0E947A
:10471000DF178091B0038068D1CF8091B0038C60A7
:10472000CDCF8091B1038360CFCF8091B0038E7FD6
:10473000C5CF8091B103877FC7CF8091B0038D7FB4
:10474000BDCF8091B0038B7FB9CF8091B003877FBD
:10475000B5CF8091B1038E7FB7CF8091B1038D7FAC
:10476000B3CF8091B0038F7EA9CF8091B0038F7DAE
:10477000A5CF8091B0038F7BA1CF0E94DF178091DE
:10478000B0038F779BCF8091B003837F97CF8091C9
:10479000B1038C7F99CF8091B00382FB992790F968
:1047A00021E0922790FB82F990FB83F987CF8091DB
:1047B000B103982F909591708E7F892B90FB81F992
:1047C00083CF9091B003892F8F7B96FF806476CF43
:1047D0000E94DF179091B003892F97FB87F98058CB
:1047E0006DCF61E08EE090E00E942B356091B003C8
:1047F0007091B10384E090E00E9449350E94DF1778
:10480000F4CE60E0EFCF9091B003892F8F7E94FFBC
:10481000806154CF9091B003892F8E7F90FF81608B
:104820004DCF9091B103892F877F93FF88604CCF44
:104830000E94DF17BFEFE4E3FCE0B150E040F0403E
:10484000E1F700C000000E9475096FEF7FEF90E074
:1048500080E00E9449350E94031B8091B10382FBD6
:10486000882780F991E089270E942512F801858127
:10487000C081D181882309F44CC0CE010E94270D4C
:10488000F82E682FCE010E949B0DBE018F2D0E9435
:10489000D20B0E94F10BEC01A82ED8011596EC90DA
:1048A00015971696DC90D2943FE0D3228091710246
:1048B0008770F1F0CE2CEE20E1F08D2F807F8034D8
:1048C00051F080E28C0F883098F0D11004C08D2F09
:1048D000807E803269F08091B10382FF09C082E05E
:1048E0000E94FD0D809171028770CC24C3948111C8
:1048F000C12CBD2EB2942FE0B222BBE0BB1508F450
:104900006DC0EB2DF0E0ED5FF84C0C949B3380E034
:10491000ABCFCE010E94680DF82EB7CFED2FEF7010
:10492000FE2E8D2F807F19F0F29490EFF922EE2069
:10493000B9F0FF2069F080E28C0F883010F0A110F0
:1049400009C08091A103F82AF092A1030E94F00F00
:104950008C2F42C08091A003F82AF092A003F6CFDA
:104960008C2F0E940A1CFF20C9F180E28C0F883036
:1049700010F0A11004C08F2D0E94160D03C08F2DC2
:104980000E940F0D0E94F00F29C0FD2FFF70FF2E17
:104990008D2F807F803219F0F29480EFF822AA20C8
:1049A00059F021E0A21609F47BC0EE2009F487C07B
:1049B000DD2009F449C0CCCF8091B10382FD40C015
:1049C000EE20C1F1FF2039F08091A103F82AF09286
:1049D000A1030E94F00F80E00E94681CAB2DA8503C
:1049E000BB0B149710F40E948711CE010E94290E70
:1049F0008111B1C11092510210925002CC20A9F045
:104A00008091710280FD11C0F8011582869586950E
:104A100086950E94140EC8010E94C32180917102E4
:104A20008695869586950E94EB0D60E0C8010E94F0
:104A3000510EEBCD80E00E940A1CFF2079F29BCF43
:104A4000EE20A1F0D11004C08F2D0E94A210C6CF7D
:104A500031E0D312C3CF80916C039F2D9823F916B8
:104A600009F4BCCFF82AF0926C03B8CFD110B6CFBE
:104A70008F2D0E949B1090916C038F2D892329F01C
:104A80008F2D8095892380936C0380914F029F2DF9
:104A9000982309F4A3CFF094F822F0924F029ECF0E
:104AA000EE2029F045E04D1508F498CFCDCF54E025
:104AB0005D1508F493CF8F2D0E949B108FCFDD20C2
:104AC000D1F389E3A81209C09FEFA7EEB3E091509C
:104AD000A040B040E1F700C000008C2F0E940A1CEB
:104AE0007DCF8D2F86958695837061F0813009F09A
:104AF00075CFCE019370E11002C080E090E00E947B
:104B00000D0A6CCFCE019370E11002C080E090E0FE
:104B10000E94320A63CF6E2D8C2F0E94191B5ECF2C
:104B20008D2F837009F040C0E11058CF4C2F429573
:104B300046954770440F440F8C2F8F7090E0042EE1
:104B400002C0880F991F0A94E2F730E020E0C4FF0A
:104B500009C02FE030E002C0220F331F4A95E2F770
:104B6000209530954D2F469546954370423099F0EB
:104B700078F46091EC027091ED02413039F0822BB3
:104B8000932B862397230E94240E28CF862B972BC6
:104B9000822B932BF8CF822B932B2091EC02309118
:104BA000ED0282279327EFCF8695EE2011F08D2F0F
:104BB0008170882309F412CF4C2F42954695477097
:104BC000440F440F8C2F8F7090E0042E02C0880F8A
:104BD000991F0A94E2F730E020E0C4FF09C02FE0FB
:104BE00030E002C0220F331F4A95E2F7209530953E
:104BF0004D2F469546954370423099F078F4609178
:104C0000700370917103413039F0822B932B86230E
:104C100097230E94E60DE2CE862B972B822B932BB7
:104C2000F8CF822B932B2091700330917103822750
:104C30009327EFCFED2FEF70FE2EEE2029F08E2F71
:104C40000E94140E8C2F01CF8C2F0E949B108F2D51
:104C50000E94EB0DC3CE8C2FF2EFAF16A1F1FA1527
:104C600070F020EFA216D1F031EFA31691F0EE20F4
:104C700009F461C0D1106CCE8D2F8F7128C043EF25
:104C8000A41641F154EFA512F2CF8091B10382FD39
:104C900032C08D2F8F71EE20D9F219C0EE2071F045
:104CA00084E08D1508F49ACE2D2F2F7181E090E0CD
:104CB00002C0880F991F2A95E2F7B5CF95E09D15A0
:104CC00008F48CCEF1CF8D2F8F71E110C1CF0E94EF
:104CD000140E84CE90E080E0EE2009F49ACF21E01B
:104CE00030E09D2F9F71D90102C0AA0FBB1F9A957A
:104CF000E2F7CD018ECFEE2099F0BD2FBF71FB2ED4
:104D00008B2F0E94140E8091B10382FF07C0E8E050
:104D1000FE9EC00111248360809371028F2DD7CF36
:104D200081E00E94FD0DF1E0FD1508F057CE82E014
:104D30000E94FD0D53CEDD2059F0893309F0CDCE10
:104D40002FEF37EE43E0215030404040E1F7C3CE33
:104D50008D2F8F717DCFEE2019F0D1104BCE4ECE1E
:104D6000D11048CE8091500290915102029709F0E3
:104D700041CE8C2F0E94F51C3DCEC2342EE7D207C7
:104D800009F448CC80F4C33ED10509F459CCC134B0
:104D90004EE7D40709F4B2CBCC32D10509F0B1CB40
:104DA00010926703AECBC4345EE7D50709F446CC56
:104DB00008F43ACCC5349EE7D90709F0A2CB10928B
:104DC00067030E94DF179DCBC631ACE7DA0701F518
:104DD0008091A1038A7A91E009F490E090934E02C9
:104DE00069E2811165E38CE292E00E94D8090E9499
:104DF000F00FFBCBC631DC4709F038CD80914E0275
:104E000069E2811165E38CE292E00E94AE09EFCF86
:104E1000C330FCE7DF0709F418CD50F4C1153CE7B7
:104E2000D30709F405CDC130DC4709F414CD1ECDFC
:104E3000CB355CE7D50709F46ACDCC358CE7D807CC
:104E400009F40BCDCA35DC4709F010CD81E00CCD5B
:104E5000C434FEE7DF0709F4EBCB08F4E2CBC5343A
:104E60003EE7D30709F04DCB84E591E00E94FE1C9C
:104E700081E08093670345CBC2345EE7D50709F430
:104E8000ACCB68F4C33ED10509F4DDCBC1349EE759
:104E9000D90709F020CB81E00E94140E32CBC43434
:104EA000AEE7DA0709F4C6CB08F4BBCBC534EEE7AE
:104EB000DE07D1F226CBCF93DF9380917002807F03
:104EC00009F04DC080916F02882309F448C0E09139
:104ED0001A045091E103C0916B02D0916A02609173
:104EE0006C0270916D0247E05E17C9F18E2F90E061
:104EF000E49FF0011124EE51FC4F2481222391F113
:104F0000489FF001499FF00D1124DF01AE51BC4FC5
:104F100011962C9111972C1325C02C912D1322C082
:104F200015962C91159721111DC012962D913C912B
:104F3000261B370B283C3105A8F4809170028F7036
:104F4000806180937002E851FC4F80818F70806196
:104F500080838AE692E00E94C3210E941D0DDF91AA
:104F6000CF910895FC013196E770BECFA4E1B0E087
:104F7000ECEBF7E20C9409338C0186E0F801DE01DA
:104F80001F9601900D928A95E1F7F8018481E580E2
:104F90009AE6A92E92E0B92E90916E02911128C046
:104FA000882319F1EE20F1F0C8010E94440EF82E7A
:104FB0008823C1F087E0F801D50101900D928A9510
:104FC000E1F780916E02813031F480916A02909114
:104FD0006B020E945B0D0E945B278F2D6496ECE0B4
:104FE0000C942533C8010E94C321FF24F394F5CF0C
:104FF000D080C18082809380F0906F0220916C02FB
:1050000030916D02A401421B530BFF2009F4D9C05B
:10501000483C510508F092C08823F9F290916B0248
:1050200080917002282F207F09F056C0C91214C049
:1050300090916A02D91210C0E11048C08F7080614F
:10504000809370028AE692E00E94C32180917002F0
:10505000F8018683F12CC1CFE11038C06C2D8D2D65
:105060000E94F9076C2D8D2D0E94F907E82E811101
:10507000F1CFDF86C88A8F8598890E945B0D292F22
:1050800022952F70243058F49F70223088F0992395
:1050900099F0F8019681907F79F4FE2C9ECF2A5FDB
:1050A0002F70223068F0C8010E94C321EF2CF5CF89
:1050B000992311F0882389F3805E883070F3F3CF51
:1050C000803F58F3815F833070F7E7CF80917002A3
:1050D000816080937002BECFC91207C090916A02AE
:1050E000D91203C0EE2009F48DC0C8010E94440EFD
:1050F000882309F477CFEE2009F474CF80917002F1
:10510000803288F020916A0230916B0239872887BB
:105110009B868A8690916E029C871D868E87CE0123
:1051200008960E94C32187E0F801AAE6B2E0019048
:105130000D928A95E1F70E945B2757CF90917002FC
:10514000292F207F51F48AE692E00E94C32187E054
:10515000F50111928A95E9F77DCF882309F43DCFB7
:1051600080916B028C1110C080916A02D8120CC021
:10517000E1100AC09683C8010E94C32187E0F501AF
:1051800011928A95E9F729CFC8010E94440E88231D
:1051900009F428CFEE2009F425CF809170028032E7
:1051A00010F220916A0230916B023A8329839C822B
:1051B0008B8290916E029D831E828F83CE01019619
:1051C000B0CF483C5105D0F6882309F40ECFFE2C11
:1051D000EE2009F407CF80916B028C1120C08091E2
:1051E0006A02D8121CC08091700280FD0FC0982FF7
:1051F000907F61F08683903F31F0982F907F905F91
:105200008F70892B8683C8010E94C32187E0F80133
:10521000AAE6B2E001900D928A95E1F7DECEC801D0
:105220000E94440E81117FCF809170028160809333
:105230007002C8010E94C321D0CEABE1B0E0E3E22E
:10524000F9E20C9412334E8B5F8B688F798F8A8FC3
:105250009B8F882349F080915002909151020196D2
:1052600090935102809350028B8D81111092A00374
:105270001D8A86E0FE017696DE011F9601900D9252
:105280008A95E1F78B89882329F061E0CE010F969A
:105290000E94510E87E0FE013F96DE0118960190B4
:1052A0000D928A95E1F7CE0108960E94B6278111EA
:1052B0000CC087E0FE013896DE01119601900D9238
:1052C0008A95E1F78C8581110BC017E080911A0453
:1052D0009091E103891331C06B96E3E00C942E3377
:1052E0002091E10330E0C901019687709927409130
:1052F0001A044817190699F097E0929FD001939FDE
:10530000B00D1124AE51BC4FFE01319601900D92AB
:105310009A95E1F78093E1030E941D0DD6CF0E947C
:10532000DF171092E10310921A0487E0EAE6F2E038
:10533000DF011D928A95E9F7C8CF819FC001112432
:105340008E519C4F0E94B627882331F280911A0417
:1053500090E001968770992780931A04B7CFA6E052
:10536000B0E0E5EBF9E20C9411330E944C158C018E
:1053700080919202909193028017910781F0198297
:105380001A820E944C15682F49815A81792F80E03A
:1053900090E00E941D29109393020093920226969A
:1053A000E4E00C942D33A2E1B0E0E9EDF9E20C94D5
:1053B000043380914C0290914D020E943D158D97CF
:1053C00008F423C10E944C1590934D0280934C0227
:1053D00086E0EEE5F3E0DE01179601900D928A95E6
:1053E000E1F786E0FE013796DE011D9601900D92F1
:1053F0008A95E1F7E984FA8484E30E94AD0E8C017A
:1054000085E30E94AD0E2091F0023091F102B801C7
:10541000621B730B4091EE025091EF028C01041B52
:10542000150BCB0177FF04C088279927861B970BA4
:10543000499754F4C80117FF04C088279927801B97
:10544000910B49970CF48AC0072E000C880B990B1E
:105450000E94973520E030E040E05CE30E9439365E
:1054600020E030E040E85FE30E94F13520E030E0EA
:1054700040E85FEB0E94D2354B015C01B801110F8F
:10548000880B990B0E94973520E030E040E05CE308
:105490000E94393620E030E040E85FE30E94F135B9
:1054A00020E030E040E85FEB0E94D2356B017C01E8
:1054B00082E00E94D10D782E20E030E04EEF52E4E1
:1054C000C501B4010E9439360E945F35862F9927A5
:1054D00081950CF490958C0120E030E04EEF52E481
:1054E000C701B6010E9439360E945F35862F992781
:1054F00081950CF490956C018091A1038272382EF5
:10550000B801012E000C880B990B0D2C000CEE0835
:10551000FF08772009F44DC00E9497354B015C01CC
:10552000C701B6010E9497352B013C01311031C0F3
:105530002DEC3CEC4CEC5EE3C501B4010E94393625
:105540000E945F35E62E2DEC3CEC4CEC5EE3C30193
:10555000B2010E9439360E945F35F62EEF86F88A36
:1055600086E0FE013D96DE01119601900D928A952E
:10557000E1F786E0FE013196AEE5B3E001900D92D1
:105580008A95E1F70E94C30F81E06296E1E10C94F5
:10559000203326E636E646E65FE3C501B4010E9405
:1055A00039360E945F35E62E26E636E646E65FE3AC
:1055B000CECF0E9497354B015C01C701B6010E9416
:1055C00097352B013C01332081F02DEC3CEC4CE471
:1055D0005DE3C501B4010E9439360E945F35E62EB5
:1055E0002DEC3CEC4CE45DE3B2CF2DEC3CEC4CEC10
:1055F0005DE3C501B4010E9439360E945F35E62E95
:105600002DEC3CEC4CEC5DE3A2CF80E0BECF1F92D2
:105610001FB61F9211248F939F93AF93BF938091D6
:10562000AB03811113C08091AC039091AD03A091A5
:10563000AE03B091AF034196A11DB11D8093AC03A1
:105640009093AD03A093AE03B093AF03BF91AF911E
:105650009F918F911F901FBE1F901895CDB7DEB7F9
:105660002E970FB6F894DEBF0FBECDBF85B780680A
:1056700085BF85B7806885BF84B7877F84BF0FB635
:10568000F894A895809160008861809360001092E2
:1056900060000FBE80E890E00FB6F8948093610040
:1056A000909361000FBE84ED9AE090932B0280935B
:1056B0002A020E9418080E94B9088091E2008460C2
:1056C0008093E20078948091D7038823A1F0109111
:1056D000E9001F709091EC00892F817090FD80E8A7
:1056E000182B1092E9008091E80083FD0E940E18AB
:1056F0001F701093E90082E084BD93E095BD9AEF9E
:1057000097BD80936E001092DA021092DB02109225
:10571000DC021092DD020E94641180936A010E94F3
:10572000641181110E948D3190916A0181E0982766
:1057300090934603282F291B2093DF0290916A0142
:105740008093470390916A018093DE0282E0809308
:10575000BB0122982A9A26982E9A8FE891E0019709
:10576000F1F700C000002091470348E453E0FA013C
:105770008E2F841B821708F4EAC080916A01809101
:105780006A0194E0811190E09093EB0284E0891B20
:105790008093EA0284E90E94D60A86E60E94D60A2D
:1057A00087E90E94D60A86EC0E94D60A0BE012E036
:1057B00051E1E52E52E0F52ED8018D918D018F3FFC
:1057C00011F00E94D60AE016F106B1F788E0E2EF88
:1057D000F2E0DF01282F1D922A95E9F7E2EEF2E0D0
:1057E000DF011D928A95E9F788E190E00E94CC33B1
:1057F000BC019093E1028093E00230E020E0FB01E5
:10580000E20FF31F96E04081417041939150D9F728
:105810002A5F3F4F2831310591F790E080E00E94E8
:105820001535863E9E4F09F464C066EE7EEF90E02B
:1058300080E00E94493560E082E090E00E942B35D4
:1058400060E083E090E00E942B351092ED02109210
:10585000EC0260E074E184E090E00E94493560E091
:1058600086E090E00E942B356FEF87E090E00E9489
:105870002B3540E050E0BA0188E090E00E943D35D1
:1058800060E084E290E00E942B3560E087E190E0E8
:105890000E942B3560E08CE090E00E942B3560E0A8
:1058A0008DE090E00E942B3519821A821B821C82A7
:1058B0001D821E821F82188648E050E068E170E079
:1058C000CE0101960E941B3540E050E0BA0180E213
:1058D00090E00E943D3540E050E0BA018FE090E05A
:1058E0000E943D3540E050E0BA0183E190E00E9423
:1058F0003D3582E090E00E940D358093FA0284E00D
:1059000090E00E9415359093B1038093B0030E94FC
:10591000011FEFEFF6E721E0E150F0402040E1F712
:1059200000C000000E94011F0E946411E4E0811188
:10593000E0E0F0E0EE50FD4F808181FF14C06FEF9A
:105940007FEF90E080E00E9449350E94750983B1A5
:1059500082FB882780F91E9904C090E0892B8193EF
:1059600007CF92E0FBCF83E090E00E940D3590E0FE
:105970000E94240E0E94641183E08093960380E2CB
:1059800080931E040E9447306BE070E082E593E054
:105990000E94B8118823E9F18091960365E070E0D8
:1059A00081FDADC08DE493E00E94B811882389F198
:1059B0006DE070E08BE393E00E94B811882349F119
:1059C0000E94A209605D7A488F4F9F4F60939803B1
:1059D0007093990380939A0390939B03E1E2F4E020
:1059E00080E092E0DF019C011D9221503040E1F700
:1059F000F0932806E09327068FEF9FEF9093200403
:105A000080931F0481E080939F0380939C031092F6
:105A100097030E946411811102C00E94903184E3B7
:105A20000E94AD0E9093F1028093F00285E30E94F4
:105A3000AD0E9093EF028093EE028BE691E090938F
:105A4000A8038093A70344E6842E912CA12CB12CAB
:105A50008091D70300E112E1853009F48FC00E94E4
:105A6000011F0BEF12E032EFE32E32E0F32ED701ED
:105A7000F80191918D9123E033E02E173F0709F44F
:105A800087C09817B1F30E946411382E712CDD2461
:105A9000D394D7016D907D01F80121908F012614D8
:105AA00029F12624512C44244394822D8421B1F0E1
:105AB0003320A1F059867A860E944C159C878B87EB
:105AC000DD8691E0862D842109F490E09E8749854A
:105AD0005A856B857C858D850E941D295394440CC5
